{
  "_format": "hh-sol-artifact-1",
  "contractName": "Vault",
  "sourceName": "contracts/Vault.sol",
  "abi": [
    {
      "inputs": [
        {
          "internalType": "address",
          "name": "_factory",
          "type": "address"
        },
        {
          "internalType": "address",
          "name": "_vaultOwner",
          "type": "address"
        },
        {
          "internalType": "string",
          "name": "_name",
          "type": "string"
        }
      ],
      "stateMutability": "nonpayable",
      "type": "constructor"
    },
    {
      "anonymous": false,
      "inputs": [
        {
          "indexed": true,
          "internalType": "address",
          "name": "collateral",
          "type": "address"
        },
        {
          "indexed": false,
          "internalType": "uint256",
          "name": "amount",
          "type": "uint256"
        },
        {
          "indexed": false,
          "internalType": "uint256",
          "name": "newTotalAmount",
          "type": "uint256"
        }
      ],
      "name": "CollateralAdded",
      "type": "event"
    },
    {
      "anonymous": false,
      "inputs": [
        {
          "indexed": true,
          "internalType": "address",
          "name": "collateral",
          "type": "address"
        },
        {
          "indexed": false,
          "internalType": "uint256",
          "name": "amount",
          "type": "uint256"
        },
        {
          "indexed": false,
          "internalType": "uint256",
          "name": "newTotalAmount",
          "type": "uint256"
        },
        {
          "indexed": false,
          "internalType": "uint256",
          "name": "stableAmountUsed",
          "type": "uint256"
        },
        {
          "indexed": false,
          "internalType": "uint256",
          "name": "feePaid",
          "type": "uint256"
        }
      ],
      "name": "CollateralRedeemed",
      "type": "event"
    },
    {
      "anonymous": false,
      "inputs": [
        {
          "indexed": true,
          "internalType": "address",
          "name": "collateral",
          "type": "address"
        },
        {
          "indexed": false,
          "internalType": "uint256",
          "name": "amount",
          "type": "uint256"
        },
        {
          "indexed": false,
          "internalType": "uint256",
          "name": "newTotalAmount",
          "type": "uint256"
        }
      ],
      "name": "CollateralRemoved",
      "type": "event"
    },
    {
      "anonymous": false,
      "inputs": [
        {
          "indexed": false,
          "internalType": "uint256",
          "name": "amount",
          "type": "uint256"
        },
        {
          "indexed": false,
          "internalType": "uint256",
          "name": "newTotalDebt",
          "type": "uint256"
        }
      ],
      "name": "DebtAdded",
      "type": "event"
    },
    {
      "anonymous": false,
      "inputs": [
        {
          "indexed": false,
          "internalType": "uint256",
          "name": "amount",
          "type": "uint256"
        },
        {
          "indexed": false,
          "internalType": "uint256",
          "name": "newTotalDebt",
          "type": "uint256"
        }
      ],
      "name": "DebtRepaid",
      "type": "event"
    },
    {
      "inputs": [],
      "name": "DECIMAL_PRECISION",
      "outputs": [
        {
          "internalType": "uint256",
          "name": "",
          "type": "uint256"
        }
      ],
      "stateMutability": "view",
      "type": "function"
    },
    {
      "inputs": [],
      "name": "LIQUIDATION_RESERVE",
      "outputs": [
        {
          "internalType": "uint256",
          "name": "",
          "type": "uint256"
        }
      ],
      "stateMutability": "view",
      "type": "function"
    },
    {
      "inputs": [],
      "name": "MAX_BORROWING_RATE",
      "outputs": [
        {
          "internalType": "uint256",
          "name": "",
          "type": "uint256"
        }
      ],
      "stateMutability": "view",
      "type": "function"
    },
    {
      "inputs": [],
      "name": "MAX_INT",
      "outputs": [
        {
          "internalType": "uint256",
          "name": "",
          "type": "uint256"
        }
      ],
      "stateMutability": "view",
      "type": "function"
    },
    {
      "inputs": [],
      "name": "MAX_REDEMPTION_RATE",
      "outputs": [
        {
          "internalType": "uint256",
          "name": "",
          "type": "uint256"
        }
      ],
      "stateMutability": "view",
      "type": "function"
    },
    {
      "inputs": [],
      "name": "PERCENT",
      "outputs": [
        {
          "internalType": "uint256",
          "name": "",
          "type": "uint256"
        }
      ],
      "stateMutability": "view",
      "type": "function"
    },
    {
      "inputs": [],
      "name": "PERCENT10",
      "outputs": [
        {
          "internalType": "uint256",
          "name": "",
          "type": "uint256"
        }
      ],
      "stateMutability": "view",
      "type": "function"
    },
    {
      "inputs": [],
      "name": "PERCENT_05",
      "outputs": [
        {
          "internalType": "uint256",
          "name": "",
          "type": "uint256"
        }
      ],
      "stateMutability": "view",
      "type": "function"
    },
    {
      "inputs": [],
      "name": "VERSION",
      "outputs": [
        {
          "internalType": "string",
          "name": "",
          "type": "string"
        }
      ],
      "stateMutability": "view",
      "type": "function"
    },
    {
      "inputs": [
        {
          "internalType": "uint256",
          "name": "_amount",
          "type": "uint256"
        }
      ],
      "name": "addBadDebt",
      "outputs": [],
      "stateMutability": "nonpayable",
      "type": "function"
    },
    {
      "inputs": [
        {
          "internalType": "address",
          "name": "_collateral",
          "type": "address"
        },
        {
          "internalType": "uint256",
          "name": "_amount",
          "type": "uint256"
        }
      ],
      "name": "addCollateral",
      "outputs": [],
      "stateMutability": "nonpayable",
      "type": "function"
    },
    {
      "inputs": [
        {
          "internalType": "address",
          "name": "_operator",
          "type": "address"
        }
      ],
      "name": "addOperator",
      "outputs": [],
      "stateMutability": "nonpayable",
      "type": "function"
    },
    {
      "inputs": [
        {
          "internalType": "uint256",
          "name": "_amount",
          "type": "uint256"
        }
      ],
      "name": "borrow",
      "outputs": [],
      "stateMutability": "nonpayable",
      "type": "function"
    },
    {
      "inputs": [],
      "name": "borrowable",
      "outputs": [
        {
          "internalType": "uint256",
          "name": "_maxBorrowable",
          "type": "uint256"
        },
        {
          "internalType": "uint256",
          "name": "_borrowable",
          "type": "uint256"
        }
      ],
      "stateMutability": "view",
      "type": "function"
    },
    {
      "inputs": [
        {
          "internalType": "address",
          "name": "_collateral",
          "type": "address"
        },
        {
          "internalType": "uint256",
          "name": "_diffAmount",
          "type": "uint256"
        },
        {
          "internalType": "bool",
          "name": "_isAdd",
          "type": "bool"
        },
        {
          "internalType": "bool",
          "name": "_useMlr",
          "type": "bool"
        }
      ],
      "name": "borrowableWithDiff",
      "outputs": [
        {
          "internalType": "uint256",
          "name": "_maxBorrowable",
          "type": "uint256"
        },
        {
          "internalType": "uint256",
          "name": "_borrowable",
          "type": "uint256"
        }
      ],
      "stateMutability": "view",
      "type": "function"
    },
    {
      "inputs": [
        {
          "internalType": "address",
          "name": "_collateral",
          "type": "address"
        },
        {
          "internalType": "uint256",
          "name": "_collateralAmount",
          "type": "uint256"
        }
      ],
      "name": "calcRedeem",
      "outputs": [
        {
          "internalType": "uint256",
          "name": "_stableAmountNeeded",
          "type": "uint256"
        },
        {
          "internalType": "uint256",
          "name": "_redemptionFee",
          "type": "uint256"
        }
      ],
      "stateMutability": "view",
      "type": "function"
    },
    {
      "inputs": [
        {
          "internalType": "address",
          "name": "",
          "type": "address"
        }
      ],
      "name": "collateral",
      "outputs": [
        {
          "internalType": "uint256",
          "name": "",
          "type": "uint256"
        }
      ],
      "stateMutability": "view",
      "type": "function"
    },
    {
      "inputs": [
        {
          "internalType": "uint256",
          "name": "_index",
          "type": "uint256"
        }
      ],
      "name": "collateralAt",
      "outputs": [
        {
          "internalType": "address",
          "name": "",
          "type": "address"
        }
      ],
      "stateMutability": "view",
      "type": "function"
    },
    {
      "inputs": [],
      "name": "collaterals",
      "outputs": [
        {
          "internalType": "address[]",
          "name": "",
          "type": "address[]"
        }
      ],
      "stateMutability": "view",
      "type": "function"
    },
    {
      "inputs": [],
      "name": "collateralsLength",
      "outputs": [
        {
          "internalType": "uint256",
          "name": "",
          "type": "uint256"
        }
      ],
      "stateMutability": "view",
      "type": "function"
    },
    {
      "inputs": [
        {
          "internalType": "address",
          "name": "_collateral",
          "type": "address"
        }
      ],
      "name": "containsCollateral",
      "outputs": [
        {
          "internalType": "bool",
          "name": "",
          "type": "bool"
        }
      ],
      "stateMutability": "view",
      "type": "function"
    },
    {
      "inputs": [],
      "name": "debt",
      "outputs": [
        {
          "internalType": "uint256",
          "name": "",
          "type": "uint256"
        }
      ],
      "stateMutability": "view",
      "type": "function"
    },
    {
      "inputs": [],
      "name": "factory",
      "outputs": [
        {
          "internalType": "address",
          "name": "",
          "type": "address"
        }
      ],
      "stateMutability": "view",
      "type": "function"
    },
    {
      "inputs": [
        {
          "internalType": "bool",
          "name": "_useMlr",
          "type": "bool"
        }
      ],
      "name": "healthFactor",
      "outputs": [
        {
          "internalType": "uint256",
          "name": "_healthFactor",
          "type": "uint256"
        }
      ],
      "stateMutability": "view",
      "type": "function"
    },
    {
      "inputs": [
        {
          "internalType": "address",
          "name": "_operator",
          "type": "address"
        }
      ],
      "name": "isOperator",
      "outputs": [
        {
          "internalType": "bool",
          "name": "",
          "type": "bool"
        }
      ],
      "stateMutability": "view",
      "type": "function"
    },
    {
      "inputs": [],
      "name": "liquidate",
      "outputs": [
        {
          "internalType": "uint256",
          "name": "_forgivenDebt",
          "type": "uint256"
        }
      ],
      "stateMutability": "nonpayable",
      "type": "function"
    },
    {
      "inputs": [],
      "name": "name",
      "outputs": [
        {
          "internalType": "string",
          "name": "",
          "type": "string"
        }
      ],
      "stateMutability": "view",
      "type": "function"
    },
    {
      "inputs": [
        {
          "internalType": "uint256",
          "name": "_newDebt",
          "type": "uint256"
        },
        {
          "internalType": "bool",
          "name": "_useMlr",
          "type": "bool"
        }
      ],
      "name": "newHealthFactor",
      "outputs": [
        {
          "internalType": "uint256",
          "name": "_newHealthFactor",
          "type": "uint256"
        }
      ],
      "stateMutability": "view",
      "type": "function"
    },
    {
      "inputs": [
        {
          "internalType": "uint256",
          "name": "_index",
          "type": "uint256"
        }
      ],
      "name": "operatorAt",
      "outputs": [
        {
          "internalType": "address",
          "name": "",
          "type": "address"
        }
      ],
      "stateMutability": "view",
      "type": "function"
    },
    {
      "inputs": [],
      "name": "operatorsLength",
      "outputs": [
        {
          "internalType": "uint256",
          "name": "",
          "type": "uint256"
        }
      ],
      "stateMutability": "view",
      "type": "function"
    },
    {
      "inputs": [
        {
          "internalType": "address",
          "name": "_collateral",
          "type": "address"
        },
        {
          "internalType": "uint256",
          "name": "_collateralAmount",
          "type": "uint256"
        }
      ],
      "name": "redeem",
      "outputs": [
        {
          "internalType": "uint256",
          "name": "_debtRepaid",
          "type": "uint256"
        },
        {
          "internalType": "uint256",
          "name": "_feeCollected",
          "type": "uint256"
        }
      ],
      "stateMutability": "nonpayable",
      "type": "function"
    },
    {
      "inputs": [
        {
          "internalType": "address",
          "name": "_collateral",
          "type": "address"
        },
        {
          "internalType": "uint256",
          "name": "_amount",
          "type": "uint256"
        },
        {
          "internalType": "address",
          "name": "_to",
          "type": "address"
        }
      ],
      "name": "removeCollateral",
      "outputs": [],
      "stateMutability": "nonpayable",
      "type": "function"
    },
    {
      "inputs": [
        {
          "internalType": "address",
          "name": "_operator",
          "type": "address"
        }
      ],
      "name": "removeOperator",
      "outputs": [],
      "stateMutability": "nonpayable",
      "type": "function"
    },
    {
      "inputs": [
        {
          "internalType": "uint256",
          "name": "_amount",
          "type": "uint256"
        }
      ],
      "name": "repay",
      "outputs": [],
      "stateMutability": "nonpayable",
      "type": "function"
    },
    {
      "inputs": [
        {
          "internalType": "string",
          "name": "_name",
          "type": "string"
        }
      ],
      "name": "setName",
      "outputs": [],
      "stateMutability": "nonpayable",
      "type": "function"
    },
    {
      "inputs": [],
      "name": "stable",
      "outputs": [
        {
          "internalType": "address",
          "name": "",
          "type": "address"
        }
      ],
      "stateMutability": "view",
      "type": "function"
    },
    {
      "inputs": [
        {
          "internalType": "address",
          "name": "_newOwner",
          "type": "address"
        }
      ],
      "name": "transferVaultOwnership",
      "outputs": [],
      "stateMutability": "nonpayable",
      "type": "function"
    },
    {
      "inputs": [],
      "name": "vaultOwner",
      "outputs": [
        {
          "internalType": "address",
          "name": "",
          "type": "address"
        }
      ],
      "stateMutability": "view",
      "type": "function"
    }
  ],
  "bytecode": "0x60c06040523480156200001157600080fd5b5060405162003424380380620034248339810160408190526200003491620002ab565b6001600160a01b038216620000835760405162461bcd60e51b815260206004820152601060248201526f07661756c742d6f776e65722d69732d360841b60448201526064015b60405180910390fd5b6000815111620000c65760405162461bcd60e51b815260206004820152600d60248201526c6e616d652d69732d656d70747960981b60448201526064016200007a565b6001600160a01b0383166200010d5760405162461bcd60e51b815260206004820152600c60248201526b0666163746f72792d69732d360a41b60448201526064016200007a565b6001600160a01b0383811660a0819052600080546001600160a01b03191692851692909217909155604080516322be3de160e01b815290516322be3de191600480820192602092909190829003018186803b1580156200016c57600080fd5b505afa15801562000181573d6000803e3d6000fd5b505050506040513d601f19601f82011682018060405250810190620001a79190620003af565b6001600160a01b03166080528051620001c8906001906020840190620001d2565b5050505062000411565b828054620001e090620003d4565b90600052602060002090601f0160209004810192826200020457600085556200024f565b82601f106200021f57805160ff19168380011785556200024f565b828001600101855582156200024f579182015b828111156200024f57825182559160200191906001019062000232565b506200025d92915062000261565b5090565b5b808211156200025d576000815560010162000262565b80516001600160a01b03811681146200029057600080fd5b919050565b634e487b7160e01b600052604160045260246000fd5b600080600060608486031215620002c157600080fd5b620002cc8462000278565b92506020620002dd81860162000278565b60408601519093506001600160401b0380821115620002fb57600080fd5b818701915087601f8301126200031057600080fd5b81518181111562000325576200032562000295565b604051601f8201601f19908116603f0116810190838211818310171562000350576200035062000295565b816040528281528a868487010111156200036957600080fd5b600093505b828410156200038d57848401860151818501870152928501926200036e565b828411156200039f5760008684830101525b8096505050505050509250925092565b600060208284031215620003c257600080fd5b620003cd8262000278565b9392505050565b600181811c90821680620003e957607f821691505b602082108114156200040b57634e487b7160e01b600052602260045260246000fd5b50919050565b60805160a051612f7d620004a7600039600081816104ec015281816106690152818161096f01528181610a4601528181610bdb01528181610c8101528181610e9c01528181610fad015281816112b0015281816113b3015281816114ad015281816116770152818161176501528181611cf101528181611ed8015281816120a0015261224f015260006103530152612f7d6000f3fe608060405234801561001057600080fd5b50600436106102925760003560e01c80636d75b9ee11610160578063ad09014d116100d8578063c47f00271161008c578063e071c0ca11610071578063e071c0ca14610534578063e99a6ac714610547578063ffa1ad741461054f57600080fd5b8063c47f00271461050e578063c5ebeaec1461052157600080fd5b8063b8911267116100bd578063b8911267146104c1578063c3f7e0b7146104d4578063c45a0155146104e757600080fd5b8063ad09014d146104b9578063b85a8b20146103dd57600080fd5b8063a20baee61161012f578063abdc554111610114578063abdc554114610496578063ac8a584a1461049e578063aceb2d04146104b157600080fd5b8063a20baee614610454578063a5fdc5de1461047657600080fd5b80636d75b9ee1461042e5780638a1bcd7714610441578063923c1eec146104545780639870d7fe1461046357600080fd5b806328a070251161020e5780634ba2ad45116101c25780634bfc894d116101a75780634bfc894d146103e55780636b5bc994146104085780636d70f7ae1461041b57600080fd5b80634ba2ad45146103d55780634bb97042146103dd57600080fd5b8063371fd8e6116101f3578063371fd8e6146103985780633879b0c5146103ad5780634113e5ca146103c057600080fd5b806328a070251461038857806329ad2fb21461039057600080fd5b80631e9a6950116102655780631f6656461161024a5780631f6656461461033b57806322be3de11461034e578063261423351461037557600080fd5b80631e9a6950146102e85780631f52692b1461031057600080fd5b806306fdde0314610297578063098d3228146102b557806309d3655d146102cc5780630dca59c1146102df575b600080fd5b61029f61058b565b6040516102ac9190612a35565b60405180910390f35b6102be60001981565b6040519081526020016102ac565b6102be6102da366004612a79565b610619565b6102be60075481565b6102fb6102f6366004612abe565b610663565b604080519283526020830191909152016102ac565b600054610323906001600160a01b031681565b6040516001600160a01b0390911681526020016102ac565b610323610349366004612aea565b610950565b6103237f000000000000000000000000000000000000000000000000000000000000000081565b610323610383366004612aea565b61095d565b6102be61096a565b6102be610e88565b6103ab6103a6366004612aea565b610e99565b005b6103ab6103bb366004612b03565b610faa565b6103c86111bf565b6040516102ac9190612b45565b6102be611272565b6102be61127e565b6103f86103f3366004612b92565b6112a0565b60405190151581526020016102ac565b6103ab610416366004612aea565b6112ad565b6103f8610429366004612b92565b6113a3565b6103ab61043c366004612abe565b6113b0565b6102fb61044f366004612baf565b61161a565b6102be670de0b6b3a764000081565b6103ab610471366004612b92565b611b38565b6102be610484366004612b92565b60066020526000908152604090205481565b6102be611be3565b6103ab6104ac366004612b92565b611bf8565b6102be611c9f565b6102be611cc0565b6102fb6104cf366004612abe565b611cea565b6102be6104e2366004612c02565b611f93565b6103237f000000000000000000000000000000000000000000000000000000000000000081565b6103ab61051c366004612c35565b611fe3565b6103ab61052f366004612aea565b61209d565b6103ab610542366004612b92565b61224c565b6102fb6122ed565b61029f6040518060400160405280600581526020017f312e302e3000000000000000000000000000000000000000000000000000000081525081565b6001805461059890612ce6565b80601f01602080910402602001604051908101604052809291908181526020018280546105c490612ce6565b80156106115780601f106105e657610100808354040283529160200191610611565b820191906000526020600020905b8154815290600101906020018083116105f457829003601f168201915b505050505081565b600082610629575060001961065d565b600061063960008060008661161a565b5090508361064f670de0b6b3a764000083612d31565b6106599190612d50565b9150505b92915050565b600080337f00000000000000000000000000000000000000000000000000000000000000006001600160a01b0316146106d25760405162461bcd60e51b815260206004820152600c60248201526b6f6e6c792d666163746f727960a01b60448201526064015b60405180910390fd5b6001600160a01b03841661071a5760405162461bcd60e51b815260206004820152600f60248201526e0636f6c6c61746572616c2d69732d3608c1b60448201526064016106c9565b600083116107585760405162461bcd60e51b815260206004820152600b60248201526a0616d6f756e742d69732d360ac1b60448201526064016106c9565b610763600285612307565b6107af5760405162461bcd60e51b815260206004820152601460248201527f636f6c6c61746572616c2d6e6f742d616464656400000000000000000000000060448201526064016106c9565b6001600160a01b0384166000908152600660205260409020548311156108175760405162461bcd60e51b815260206004820152601560248201527f6e6f742d656e6f7567682d636f6c6c61746572616c000000000000000000000060448201526064016106c9565b6001600160a01b0384166000908152600660205260408120805485929061083f908490612d72565b9091555061084f90508484611cea565b809250819350505081600760008282546108699190612d72565b90915550506001600160a01b03841660009081526006602052604090205461089857610896600285612329565b505b6108ac6001600160a01b038516338561233e565b6001600160a01b03841660008181526006602090815260409182902054825187815291820152908101849052606081018390527fe3c5362354987ae7844588482f3912d58e2cb3ffa7d04a1d3025c99fa996d5259060800160405180910390a26007546040805184815260208101929092527f0d4979b0859a1951f8ed7cbe3b1994e740552588f27ba02ca0f8f1ddcad16e0c910160405180910390a19250929050565b600061065d6002836123ec565b600061065d6004836123ec565b6000337f00000000000000000000000000000000000000000000000000000000000000006001600160a01b0316146109d35760405162461bcd60e51b815260206004820152600c60248201526b6f6e6c792d666163746f727960a01b60448201526064016106c9565b670de0b6b3a76400006109e66001611f93565b10610a335760405162461bcd60e51b815260206004820152601a60248201527f6c69717569646174696f6e2d666163746f722d61626f76652d3100000000000060448201526064016106c9565b60006007549050600060078190555060007f00000000000000000000000000000000000000000000000000000000000000006001600160a01b031663679fda706040518163ffffffff1660e01b815260040160206040518083038186803b158015610a9d57600080fd5b505afa158015610ab1573d6000803e3d6000fd5b505050506040513d601f19601f82011682018060405250810190610ad59190612d89565b905060005b610ae460026123f8565b811015610db4576000610af86002836123ec565b6001600160a01b0381166000818152600660205260408082205490517f70a08231000000000000000000000000000000000000000000000000000000008152306004820152939450929091906370a082319060240160206040518083038186803b158015610b6557600080fd5b505afa158015610b79573d6000803e3d6000fd5b505050506040513d601f19601f82011682018060405250810190610b9d9190612da6565b905081811015610bab578091505b600060066000856001600160a01b03166001600160a01b0316815260200190815260200160002081905550610c7c7f00000000000000000000000000000000000000000000000000000000000000006001600160a01b031663679fda706040518163ffffffff1660e01b815260040160206040518083038186803b158015610c3257600080fd5b505afa158015610c46573d6000803e3d6000fd5b505050506040513d601f19601f82011682018060405250810190610c6a9190612d89565b6001600160a01b038516906000612402565b610d237f00000000000000000000000000000000000000000000000000000000000000006001600160a01b031663679fda706040518163ffffffff1660e01b815260040160206040518083038186803b158015610cd857600080fd5b505afa158015610cec573d6000803e3d6000fd5b505050506040513d601f19601f82011682018060405250810190610d109190612d89565b6001600160a01b03851690600019612402565b6040517fb7017b910000000000000000000000000000000000000000000000000000000081526001600160a01b0384811660048301526024820184905286169063b7017b9190604401600060405180830381600087803b158015610d8657600080fd5b505af1158015610d9a573d6000803e3d6000fd5b505050505050508080610dac90612dbf565b915050610ada565b506040517f2fb04272000000000000000000000000000000000000000000000000000000008152306004820152602481018390526001600160a01b03821690632fb0427290604401600060405180830381600087803b158015610e1657600080fd5b505af1158015610e2a573d6000803e3d6000fd5b50505050806001600160a01b031663a0c03a366040518163ffffffff1660e01b8152600401600060405180830381600087803b158015610e6957600080fd5b505af1158015610e7d573d6000803e3d6000fd5b509395945050505050565b6000610e9460026123f8565b905090565b337f00000000000000000000000000000000000000000000000000000000000000006001600160a01b031614610f005760405162461bcd60e51b815260206004820152600c60248201526b6f6e6c792d666163746f727960a01b60448201526064016106c9565b600754811115610f525760405162461bcd60e51b815260206004820152601360248201527f616d6f756e742d657863656564732d646562740000000000000000000000000060448201526064016106c9565b8060076000828254610f649190612d72565b90915550506007546040805183815260208101929092527f0d4979b0859a1951f8ed7cbe3b1994e740552588f27ba02ca0f8f1ddcad16e0c91015b60405180910390a150565b337f00000000000000000000000000000000000000000000000000000000000000006001600160a01b0316146110115760405162461bcd60e51b815260206004820152600c60248201526b6f6e6c792d666163746f727960a01b60448201526064016106c9565b6001600160a01b0383166110595760405162461bcd60e51b815260206004820152600f60248201526e0636f6c6c61746572616c2d69732d3608c1b60448201526064016106c9565b600082116110975760405162461bcd60e51b815260206004820152600b60248201526a0616d6f756e742d69732d360ac1b60448201526064016106c9565b6001600160a01b038316600090815260066020526040812080548492906110bf908490612d72565b90915550506001600160a01b0383166000908152600660205260409020546110ee576110ec600284612329565b505b60006110fa6000611f93565b9050670de0b6b3a76400008110156111545760405162461bcd60e51b815260206004820152601560248201527f6865616c74682d666163746f722d62656c6f772d31000000000000000000000060448201526064016106c9565b6111686001600160a01b038516838561233e565b6001600160a01b038416600081815260066020908152604091829020548251878152918201527f47e1336b6fdb5f42c3a1d28b558fa98786d820c3705d726358dcc8e63a401eef910160405180910390a250505050565b606060006111cd60026123f8565b67ffffffffffffffff8111156111e5576111e5612c1f565b60405190808252806020026020018201604052801561120e578160200160208202803683370190505b50905060005b61121e60026123f8565b81101561126c576112306002826123ec565b82828151811061124257611242612dda565b6001600160a01b03909216602092830291909101909101528061126481612dbf565b915050611214565b50919050565b6000610e9460046123f8565b6064611293670de0b6b3a76400006001612d31565b61129d9190612d50565b81565b600061065d600283612307565b337f00000000000000000000000000000000000000000000000000000000000000006001600160a01b0316146113145760405162461bcd60e51b815260206004820152600c60248201526b6f6e6c792d666163746f727960a01b60448201526064016106c9565b600081116113525760405162461bcd60e51b815260206004820152600b60248201526a0616d6f756e742d69732d360ac1b60448201526064016106c9565b80600760008282546113649190612df0565b90915550506007546040805183815260208101929092527f28c388e35418553e43dc360d4b6b01207242898c8e48fb1a12d9073c0579be6c9101610f9f565b600061065d600483612307565b337f00000000000000000000000000000000000000000000000000000000000000006001600160a01b0316146114175760405162461bcd60e51b815260206004820152600c60248201526b6f6e6c792d666163746f727960a01b60448201526064016106c9565b6001600160a01b03821661145f5760405162461bcd60e51b815260206004820152600f60248201526e0636f6c6c61746572616c2d69732d3608c1b60448201526064016106c9565b6000811161149d5760405162461bcd60e51b815260206004820152600b60248201526a0616d6f756e742d69732d360ac1b60448201526064016106c9565b6114a860028361255f565b5060007f00000000000000000000000000000000000000000000000000000000000000006001600160a01b031663ffbfb8ad6040518163ffffffff1660e01b815260040160206040518083038186803b15801561150457600080fd5b505afa158015611518573d6000803e3d6000fd5b505050506040513d601f19601f8201168201806040525081019061153c9190612da6565b90508061154960026123f8565b11156115975760405162461bcd60e51b815260206004820152601260248201527f6d61782d746f6b656e732d72656163686564000000000000000000000000000060448201526064016106c9565b6001600160a01b038316600090815260066020526040812080548492906115bf908490612df0565b90915550506001600160a01b038316600081815260066020908152604091829020548251868152918201527f11f8990ac38271f23dea447d5728e9914fca7cea2edda43af6c43c415f8bc30b910160405180910390a2505050565b6001600160a01b0384166000818152600660205260408120549091829190829015611761576040517ffa6bd2ee0000000000000000000000000000000000000000000000000000000081526001600160a01b0389811660048301527f0000000000000000000000000000000000000000000000000000000000000000169063fa6bd2ee9060240160206040518083038186803b1580156116b957600080fd5b505afa1580156116cd573d6000803e3d6000fd5b505050506040513d601f19601f820116820180604052508101906116f19190612e08565b61173d5760405162461bcd60e51b815260206004820152601860248201527f636f6c6c61746572616c2d6e6f742d737570706f72746564000000000000000060448201526064016106c9565b85156117545761174d8783612df0565b9150611761565b61175e8783612d72565b91505b60007f00000000000000000000000000000000000000000000000000000000000000006001600160a01b031663741bef1a6040518163ffffffff1660e01b815260040160206040518083038186803b1580156117bc57600080fd5b505afa1580156117d0573d6000803e3d6000fd5b505050506040513d601f19601f820116820180604052508101906117f49190612d89565b905060005b61180360026123f8565b811015611b095760006118176002836123ec565b905060008b6001600160a01b0316826001600160a01b031614611852576001600160a01b038216600090815260066020526040902054611854565b855b6040516384ba3f6960e01b81526001600160a01b0384811660048301529192506000918616906384ba3f699060240160206040518083038186803b15801561189b57600080fd5b505afa1580156118af573d6000803e3d6000fd5b505050506040513d601f19601f820116820180604052508101906118d39190612da6565b905060008a611973576040517faa41911f0000000000000000000000000000000000000000000000000000000081526001600160a01b03858116600483015287169063aa41911f9060240160206040518083038186803b15801561193657600080fd5b505afa15801561194a573d6000803e3d6000fd5b505050506040513d601f19601f8201168201806040525081019061196e9190612da6565b611a05565b6040517f75b785440000000000000000000000000000000000000000000000000000000081526001600160a01b0385811660048301528716906375b785449060240160206040518083038186803b1580156119cd57600080fd5b505afa1580156119e1573d6000803e3d6000fd5b505050506040513d601f19601f82011682018060405250810190611a059190612da6565b604051636a24d41960e11b81526001600160a01b03868116600483015291925060009188169063d449a8329060240160206040518083038186803b158015611a4c57600080fd5b505afa158015611a60573d6000803e3d6000fd5b505050506040513d601f19601f82011682018060405250810190611a849190612da6565b611a8f906012612d72565b611a9a90600a612f09565b611aa49085612d31565b90506000670de0b6b3a7640000611abb8584612d31565b611ac59190612d50565b905082611ada670de0b6b3a764000083612d31565b611ae49190612d50565b611aee908a612df0565b98505050505050508080611b0190612dbf565b9150506117f9565b50816007548311611b1b576000611b28565b600754611b289084612d72565b9450945050505094509492505050565b6000546001600160a01b0316336001600160a01b031614611b8e5760405162461bcd60e51b815260206004820152601060248201526f37b7363c96bb30bab63a16b7bbb732b960811b60448201526064016106c9565b6001600160a01b038116611bd45760405162461bcd60e51b815260206004820152600d60248201526c06f70657261746f722d69732d3609c1b60448201526064016106c9565b611bdf60048261255f565b5050565b6064611293670de0b6b3a76400006005612d31565b6000546001600160a01b0316336001600160a01b031614611c4e5760405162461bcd60e51b815260206004820152601060248201526f37b7363c96bb30bab63a16b7bbb732b960811b60448201526064016106c9565b6001600160a01b038116611c945760405162461bcd60e51b815260206004820152600d60248201526c06f70657261746f722d69732d3609c1b60448201526064016106c9565b611bdf600482612329565b60026064611cb6670de0b6b3a76400006001612d31565b6112939190612d50565b6064611cd5670de0b6b3a76400006001612d31565b611cdf9190612d50565b61129d90600a612d31565b60008060007f00000000000000000000000000000000000000000000000000000000000000006001600160a01b031663741bef1a6040518163ffffffff1660e01b815260040160206040518083038186803b158015611d4857600080fd5b505afa158015611d5c573d6000803e3d6000fd5b505050506040513d601f19601f82011682018060405250810190611d809190612d89565b6040516384ba3f6960e01b81526001600160a01b0387811660048301529192506000918316906384ba3f699060240160206040518083038186803b158015611dc757600080fd5b505afa158015611ddb573d6000803e3d6000fd5b505050506040513d601f19601f82011682018060405250810190611dff9190612da6565b604051636a24d41960e11b81526001600160a01b03888116600483015291925060009184169063d449a8329060240160206040518083038186803b158015611e4657600080fd5b505afa158015611e5a573d6000803e3d6000fd5b505050506040513d601f19601f82011682018060405250810190611e7e9190612da6565b611e89906012612d72565b611e9490600a612f09565b611e9e9087612d31565b9050670de0b6b3a7640000611eb38383612d31565b611ebd9190612d50565b94506007548511611ece5784611ed2565b6007545b945060007f00000000000000000000000000000000000000000000000000000000000000006001600160a01b031663540385a36040518163ffffffff1660e01b815260040160206040518083038186803b158015611f2f57600080fd5b505afa158015611f43573d6000803e3d6000fd5b505050506040513d601f19601f82011682018060405250810190611f679190612da6565b9050670de0b6b3a7640000611f7c8288612d31565b611f869190612d50565b9450505050509250929050565b600060075460001415611fa95750600019919050565b6000611fb960008060008661161a565b50600754909150611fd2670de0b6b3a764000083612d31565b611fdc9190612d50565b9392505050565b6000546001600160a01b0316336001600160a01b0316146120395760405162461bcd60e51b815260206004820152601060248201526f37b7363c96bb30bab63a16b7bbb732b960811b60448201526064016106c9565b600081511161208a5760405162461bcd60e51b815260206004820152600d60248201527f6e616d652d69732d656d7074790000000000000000000000000000000000000060448201526064016106c9565b8051611bdf90600190602084019061296c565b337f00000000000000000000000000000000000000000000000000000000000000006001600160a01b0316146121045760405162461bcd60e51b815260206004820152600c60248201526b6f6e6c792d666163746f727960a01b60448201526064016106c9565b600081116121425760405162461bcd60e51b815260206004820152600b60248201526a0616d6f756e742d69732d360ac1b60448201526064016106c9565b60008061214d6122ed565b91509150808311156121a15760405162461bcd60e51b815260206004820152601560248201527f6e6f742d656e6f7567682d626f72726f7761626c65000000000000000000000060448201526064016106c9565b82600760008282546121b39190612df0565b909155505060075482101561220a5760405162461bcd60e51b815260206004820152601660248201527f6d61782d626f72726f7761626c652d726561636865640000000000000000000060448201526064016106c9565b6007546040805185815260208101929092527f28c388e35418553e43dc360d4b6b01207242898c8e48fb1a12d9073c0579be6c910160405180910390a1505050565b337f00000000000000000000000000000000000000000000000000000000000000006001600160a01b0316146122b35760405162461bcd60e51b815260206004820152600c60248201526b6f6e6c792d666163746f727960a01b60448201526064016106c9565b600080547fffffffffffffffffffffffff0000000000000000000000000000000000000000166001600160a01b0392909216919091179055565b6000806122fe60008060008061161a565b90939092509050565b6001600160a01b03811660009081526001830160205260408120541515611fdc565b6000611fdc836001600160a01b038416612574565b6040516001600160a01b0383166024820152604481018290526123e79084907fa9059cbb00000000000000000000000000000000000000000000000000000000906064015b60408051601f198184030181529190526020810180517bffffffffffffffffffffffffffffffffffffffffffffffffffffffff167fffffffff0000000000000000000000000000000000000000000000000000000090931692909217909152612667565b505050565b6000611fdc838361274f565b600061065d825490565b8015806124a457506040517fdd62ed3e0000000000000000000000000000000000000000000000000000000081523060048201526001600160a01b03838116602483015284169063dd62ed3e9060440160206040518083038186803b15801561246a57600080fd5b505afa15801561247e573d6000803e3d6000fd5b505050506040513d601f19601f820116820180604052508101906124a29190612da6565b155b6125165760405162461bcd60e51b815260206004820152603660248201527f5361666545524332303a20617070726f76652066726f6d206e6f6e2d7a65726f60448201527f20746f206e6f6e2d7a65726f20616c6c6f77616e63650000000000000000000060648201526084016106c9565b6040516001600160a01b0383166024820152604481018290526123e79084907f095ea7b30000000000000000000000000000000000000000000000000000000090606401612383565b6000611fdc836001600160a01b038416612779565b6000818152600183016020526040812054801561265d576000612598600183612d72565b85549091506000906125ac90600190612d72565b90508181146126115760008660000182815481106125cc576125cc612dda565b90600052602060002001549050808760000184815481106125ef576125ef612dda565b6000918252602080832090910192909255918252600188019052604090208390555b855486908061262257612622612f15565b60019003818190600052602060002001600090559055856001016000868152602001908152602001600020600090556001935050505061065d565b600091505061065d565b60006126bc826040518060400160405280602081526020017f5361666545524332303a206c6f772d6c6576656c2063616c6c206661696c6564815250856001600160a01b03166127c89092919063ffffffff16565b90508051600014806126dd5750808060200190518101906126dd9190612e08565b6123e75760405162461bcd60e51b815260206004820152602a60248201527f5361666545524332303a204552433230206f7065726174696f6e20646964206e60448201527f6f7420737563636565640000000000000000000000000000000000000000000060648201526084016106c9565b600082600001828154811061276657612766612dda565b9060005260206000200154905092915050565b60008181526001830160205260408120546127c05750815460018181018455600084815260208082209093018490558454848252828601909352604090209190915561065d565b50600061065d565b60606127d784846000856127df565b949350505050565b6060824710156128575760405162461bcd60e51b815260206004820152602660248201527f416464726573733a20696e73756666696369656e742062616c616e636520666f60448201527f722063616c6c000000000000000000000000000000000000000000000000000060648201526084016106c9565b600080866001600160a01b031685876040516128739190612f2b565b60006040518083038185875af1925050503d80600081146128b0576040519150601f19603f3d011682016040523d82523d6000602084013e6128b5565b606091505b50915091506128c6878383876128d1565b979650505050505050565b6060831561293d578251612936576001600160a01b0385163b6129365760405162461bcd60e51b815260206004820152601d60248201527f416464726573733a2063616c6c20746f206e6f6e2d636f6e747261637400000060448201526064016106c9565b50816127d7565b6127d783838151156129525781518083602001fd5b8060405162461bcd60e51b81526004016106c99190612a35565b82805461297890612ce6565b90600052602060002090601f01602090048101928261299a57600085556129e0565b82601f106129b357805160ff19168380011785556129e0565b828001600101855582156129e0579182015b828111156129e05782518255916020019190600101906129c5565b506129ec9291506129f0565b5090565b5b808211156129ec57600081556001016129f1565b60005b83811015612a20578181015183820152602001612a08565b83811115612a2f576000848401525b50505050565b6020815260008251806020840152612a54816040850160208701612a05565b601f01601f19169190910160400192915050565b8015158114612a7657600080fd5b50565b60008060408385031215612a8c57600080fd5b823591506020830135612a9e81612a68565b809150509250929050565b6001600160a01b0381168114612a7657600080fd5b60008060408385031215612ad157600080fd5b8235612adc81612aa9565b946020939093013593505050565b600060208284031215612afc57600080fd5b5035919050565b600080600060608486031215612b1857600080fd5b8335612b2381612aa9565b9250602084013591506040840135612b3a81612aa9565b809150509250925092565b6020808252825182820181905260009190848201906040850190845b81811015612b865783516001600160a01b031683529284019291840191600101612b61565b50909695505050505050565b600060208284031215612ba457600080fd5b8135611fdc81612aa9565b60008060008060808587031215612bc557600080fd5b8435612bd081612aa9565b9350602085013592506040850135612be781612a68565b91506060850135612bf781612a68565b939692955090935050565b600060208284031215612c1457600080fd5b8135611fdc81612a68565b634e487b7160e01b600052604160045260246000fd5b600060208284031215612c4757600080fd5b813567ffffffffffffffff80821115612c5f57600080fd5b818401915084601f830112612c7357600080fd5b813581811115612c8557612c85612c1f565b604051601f8201601f19908116603f01168101908382118183101715612cad57612cad612c1f565b81604052828152876020848701011115612cc657600080fd5b826020860160208301376000928101602001929092525095945050505050565b600181811c90821680612cfa57607f821691505b6020821081141561126c57634e487b7160e01b600052602260045260246000fd5b634e487b7160e01b600052601160045260246000fd5b6000816000190483118215151615612d4b57612d4b612d1b565b500290565b600082612d6d57634e487b7160e01b600052601260045260246000fd5b500490565b600082821015612d8457612d84612d1b565b500390565b600060208284031215612d9b57600080fd5b8151611fdc81612aa9565b600060208284031215612db857600080fd5b5051919050565b6000600019821415612dd357612dd3612d1b565b5060010190565b634e487b7160e01b600052603260045260246000fd5b60008219821115612e0357612e03612d1b565b500190565b600060208284031215612e1a57600080fd5b8151611fdc81612a68565b600181815b80851115612e60578160001904821115612e4657612e46612d1b565b80851615612e5357918102915b93841c9390800290612e2a565b509250929050565b600082612e775750600161065d565b81612e845750600061065d565b8160018114612e9a5760028114612ea457612ec0565b600191505061065d565b60ff841115612eb557612eb5612d1b565b50506001821b61065d565b5060208310610133831016604e8410600b8410161715612ee3575081810a61065d565b612eed8383612e25565b8060001904821115612f0157612f01612d1b565b029392505050565b6000611fdc8383612e68565b634e487b7160e01b600052603160045260246000fd5b60008251612f3d818460208701612a05565b919091019291505056fea2646970667358221220db891a65a4bd148da91574ce74be1064526a44785f3064f5a81aa8e35656d7fd64736f6c63430008090033",
  "linkReferences": {},
  "deployedLinkReferences": {}
}